:100000000C947E010C949B010C949B010C949B011D
:100010000C949B010C949B010C949B010C949B01F0
:100020000C949B010C949B010C949B010C949B01E0
:100030000C949B010C949B010C949B010C949B01D0
:100040000C949B010C949B010C949B010C949B01C0
:100050000C949B010000000000000000004F000015
:10006000000000070007000000147F147F14000048
:10007000242A7F2A120000231308646200003649F4
:10008000552220000000050300000000001C224152
:100090000000000041221C00000014083E0814006B
:1000A0000008083E0808000050300000000000086A
:1000B0000808080800000060600000000020100828
:1000C000040200003E5149453E000040427F40404E
:1000D0000000426151494600002141454B3100007A
:1000E0001814127F100000274545453900003C4A8E
:1000F00049493000000171090503000036494949AA
:10010000360000064949291E00000036360000006E
:1001100000005636000000000814224100000014C0
:1001200014141414000000412214080000020151AC
:10013000090600003E415D551E00007E111111119F
:100140007E007F4949494936003E414141412200F4
:100150007F414141221C007F4949494941007F09B3
:1001600009090901003E414949497A007F08080808
:10017000087F000041417F4141002041413F010192
:1001800000007F08142241007F40404040400000B2
:100190007F020C027F007F040810207F003E414157
:1001A00041413E007F0909090906003E41415121B4
:1001B0005E007F090919294600264949494932004C
:1001C0000001017F0101003F404040403F00001F0F
:1001D0002040201F00003F4038403F0000631408CB
:1001E0001463000007087008070000615149454387
:1001F00000007F41410000000204081020000000C0
:1002000041417F0000000402010204000040404020
:1002100040400000000003050000002054545454E6
:1002200078007F48484848300038444444444400FB
:1002300038444444447F003854545454180004044F
:100240007E05050500044A4A4A4A3C007F0804042A
:100250000478000000447D40000000002040443D40
:100260000000007F102844000000417F4000000093
:100270007C047C047800007C080404780000384486
:1002800044443800007C14141408000008141414AA
:100290007C0000007C0804040000485454542400EE
:1002A0000004043F444400003C4040207C00001C0B
:1002B0002040201C00003C4030403C0000442810FE
:1002C000284400000C5050503C00004464544C44FE
:1002D00000083641410000000000770000000000E7
:1002E00041413608000008082A1C080000081C2AA2
:1002F00008080000000000000000000011241FBEDC
:10030000CFE5D8E0DEBFCDBF12E0A0E6B0E0E2EF7F
:10031000FAE102C005900D92AC34B107D9F722E0A2
:10032000ACE4B2E001C01D92AC37B207E1F70E9425
:100330003C070C94770D0C9400006AE070E00E947A
:100340005A0780E090E08617970741F0EFE9FFE059
:100350003197F1F700C000000196F5CF08956AE0EB
:1003600070E00E945A0780E090E08617970731F00E
:1003700025E02A95F1F700000196F7CF08954F92F6
:100380005F926F927F928F929F92AF92BF92CF9225
:10039000DF92EF92FF921F93CF93DF9300D000D0B4
:1003A000CDB7DEB76B017C0129013A0160E271EA49
:1003B00087E090E0A70196010E94820749015A0157
:1003C000A7019601C301B2010E944A0728EE33E05B
:1003D00040E050E00E948207C12CD12C760110E849
:1003E000C216D306E406F506B4F412BBC401298391
:1003F0003A834B835C830E94AF0112BAC4010E940E
:10040000AF018FEFC81AD80AE80AF80A5C814B815D
:100410003A812981E5CF0F900F900F900F90DF91D7
:10042000CF911F91FF90EF90DF90CF90BF90AF9052
:100430009F908F907F906F905F904F9008959F92C4
:10044000AF92BF92CF92DF92EF92FF920F931F93E2
:10045000CF93DF93CCE2D1E00CE911E088EEA82E37
:1004600083E0B82E9AE0992E69917991C5010E9496
:100470006E076B01770FEE08FF08F801619171912B
:100480008F01072E000C880B990BA70196010E9483
:10049000BF01C701B6010E94150826E636E646EA06
:1004A0005FE30E9479080E94DD07969E9001979E67
:1004B000300D1124C9010E94AF01A701960160E02F
:1004C00070E0CB010E94BF01F1E0CC39DF0761F69B
:1004D000DF91CF911F910F91FF90EF90DF90CF9020
:1004E000BF90AF909F900895E199FECF9FBB8EBBC8
:1004F0006DBBE29AE19A0895E199FECF9FBB8EBB56
:10050000E09A8DB308959F92AF92BF92CF92DF92FF
:10051000EF92FF920F931F93CF93DF93CDB7DEB788
:10052000C857D1090FB6F894DEBF0FBECDBFDC01AE
:10053000E12CF12C60E070E0AD01481B590B2D91CE
:10054000222329F1F7E02F02900111248B010E0DD7
:100550001F1D40E050E0205E3109F901E40FF51F56
:10056000EC5AFF4F94906A01C00ED11EAA24A394A6
:10057000B12CAC0EBD1ECA0CDB1CF60190824F5F85
:100580005F4F4730510549F7695F7F4FD5CF87E00F
:10059000849F5001859FB00C1124CE0101967C01EF
:1005A000C12CD12CCA14DB04BCF500E110E0C80159
:1005B0008C0D9D1D0830110564F48A159B052CF4E3
:1005C000F701E00FF11F408101C040E0602F80E0A3
:1005D0000DC0B801677077278A159B052CF4F701C9
:1005E000E00FF11F408101C040E081E00E942A0736
:1005F00001501109E1F689E190E00E949D0180E03F
:100600000E949F0681E00E949F069FEFC91AD90AA7
:10061000EFEFEE1AFE0AC6CFC858DF4F0FB6F894B8
:10062000DEBF0FBECDBFDF91CF911F910F91FF9025
:10063000EF90DF90CF90BF90AF909F9008951ABA3F
:1006400085E886B980E881BB12BA82E00E94C206C2
:1006500080E00E949F0681E00E949F0662E080E0A9
:100660000E94F30662E081E00E94F30668E873E10D
:1006700086E192E00E9483020E941F0280E090E0E7
:100680000E947C0290E08F3F910529F090935602E2
:1006900080935502089510925602109255020895C3
:1006A00087B9369A349BFECF84B195B10895CF9324
:1006B000DF9380E00E945003EC0181E00E94500330
:1006C0009C0180915402843011F08D7F79F4C039FF
:1006D00081E0D80718F483E080935402CC56D240CE
:1006E000C439D14018F481E08093540280915402BF
:1006F000833011F0823038F4203981E0380718F463
:1007000084E0809354022C5632402439314018F44E
:1007100082E08093540280915402DF91CF9108953A
:10072000CF93DF9390E00E948C0A0E94870AC2E573
:10073000D2E06FE070E00E946E0788830E94870A13
:1007400067E070E00E946E078983CE01DF91CF9150
:100750000895FF920F931F93CF93DF93D82F80E0DC
:1007600090E00E947C02282F30E02F3F310529F0D5
:10077000309356022093550204C0109256021092F4
:1007800055022091630030E02150310980915002E0
:1007900090E0492F50E04217530794F4DA01AA0F72
:1007A000BB1FAC59BF4F440F551FFA01E653FF4F13
:1007B00080818C93818111968C939F5F82E0E9CF39
:1007C00080935002C0914F024C2F50E04D1B5109B5
:1007D0004230510519F04E3F5F4F31F4C11105C051
:1007E000D23009F063C01BC0CD2FC230C1F090F4ED
:1007F000C13009F05BC0220F331FD901AC59BF4F84
:10080000F901E853FF4F80818F708C93818190E0D4
:1008100001962DC0C330B9F0C43061F147C0220F3A
:10082000331FD901AC59BF4FF901E853FF4F808105
:1008300090E001968F7099278C9381818770119633
:100840008C93C2E033C0220F331FD901AC59BF4F84
:10085000F901E853FF4F80818F708C93818190E084
:10086000009721F487E011968C9320C00197877040
:100870009927F9CF220F331FF901E853FF4F8081E9
:1008800090E0F901EC59FF4F009711F48FE003C09D
:1008900001978F7099278083F901EC59FF4FD90197
:1008A000A853BF4F11968C9187708183109251028B
:1008B000D1E080915102909163008917E0F490E0BB
:1008C000880F991FFC01E853FF4F6081683008F0E2
:1008D000F8C110924E02FC01E853FF4F677020E010
:1008E000418180914E020E94F706809151028F5FF4
:1008F00080935102DECF10925102D1E080915102DB
:10090000209163008217E0F490E0880F991FFC01AA
:10091000EC59FF4F6081683008F0D6C110924E024A
:10092000FC01EC59FF4F677021E0418180914E023C
:100930000E94F706809151028F5F80935102DECFB3
:100940009091500280E0821788F4E82FF0E0EE0FDB
:10095000FF1FDF01A853BF4FEC59FF4F90819C93BD
:10096000918111969C938F5F92E0EDCF809351021D
:100970009093500280916200882399F1D0E0809199
:1009800063008D0F0E949003FC0190934D028093B1
:100990004C02DF5F20916300A8ECB0E080E090E0C3
:1009A000821771F040813C91431307C04181119639
:1009B0003C911197431301C091E08F5F1296F0CFE5
:1009C0009111DDCF6081683028F0677021E04181AE
:1009D00081E003C021E0418180E00E94F70610928F
:1009E0006200E0916300F0E0A0914C02B0914D02F2
:1009F000EE0FFF1FEE59FF4F90818C9198138DC021
:100A0000918111968C91981388C080E882BBAFE9E0
:100A1000BFE01197F1F700C0000012BA81E08093A7
:100A20006200E0914C02F0914D026081683020F04C
:100A3000677020E0418103C020E0418180E00E9496
:100A4000F706E0916300EF5FE0936300C23029F1A5
:100A5000B0F4C13009F055C0F0E0319720914C025C
:100A600030914D02D9019C91AF01440F551FDA011D
:100A7000AC59BF4F9C93F90181818F5F2AC0C3306D
:100A8000B1F0C430F1F5F0E0319720914C02309193
:100A90004D02D9018C91815024C0F0E03197209112
:100AA0004C0230914D02D9018C918F5F1AC0F0E059
:100AB000319720914C0230914D02D9019C91AF01A8
:100AC000440F551FDA01AC59BF4F9C93F901818146
:100AD000815011968C93FA01E853FF4F90838183E4
:100AE00010C0AF01440F551FDA01AC59BF4F8C93B2
:100AF000F901918111969C93FA01E853FF4F80838D
:100B0000918380916000909161008630910528F07A
:100B1000019790936100809360004091630050E0E2
:100B200041505109309164006091650021E0822FAD
:100B300090E0841795070CF0AEC0880F991FFC0158
:100B4000EC59FF4F80818313A4C081818613A1C01B
:100B5000209351022AEF30E040E050E060EE76E072
:100B600080E090E00E94BF012AEF30E040E050E0DA
:100B700060EC7DE080E090E00E94BF012AEF30E071
:100B800040E050E060EE76E080E090E00E94BF013F
:100B900068E873E18EE192E00E94830200916300B5
:100BA00010E0025011098091550290915602801771
:100BB000910748F41093560200935502602F80E08D
:100BC00090E00E94740281E090E00E940E09F82EED
:100BD000D92F1F930F9388E292E09F938F9307E39F
:100BE00012E01F930F93DF93FF920E94970A68E829
:100BF00073E18F2D9D2F0E948302809156028F9367
:100C0000809155028F938CE392E09F938F931F9373
:100C10000F93DF93FF920E94970A68E873E18F2D8C
:100C20009D2F0E94830282E08093630081E0809385
:100C3000570221E130E030936100209360008093FF
:100C4000620028EC30E040E050E060E276E080E0D6
:100C500090E00E94BF0124E630E040E050E060EE0A
:100C600076E080E090E00E94BF0128EC30E040E0B8
:100C700050E062E773E180E090E00E94BF014DB771
:100C80005EB7405F5F4F0FB6F8945EBF0FBE4DBFBB
:100C900004C02F5F4CCF20935102C0934F0280912C
:100CA0006000909161002AE0DC012A9FC0012B9F27
:100CB000900D1124DF91CF911F910F91FF900C9413
:100CC0009D01D0934E0207CED0934E0229CE8FB90C
:100CD000779BFECF0895EF92FF920F931F93CF93D0
:100CE000DF9300D000D0CDB7DEB719821A821B8205
:100CF0001C82880F90E0FE01E80FF91F62839E01BD
:100D00002F5F3F4F7901F901E80FF91F4083C49825
:100D10008E010B5F1F4FF80182918F010E946706C1
:100D20000E151F05C1F7C49A0F900F900F900F90EA
:100D3000DF91CF911F910F91FF90EF900895FF9257
:100D40000F931F93CF93DF93F82E082F000F000F00
:100D5000000FC0E0D0E010E0FE01E00FF11FE85A04
:100D6000FD4F10826C2F6F5F40E08F2D0E946B064D
:100D70002196C830D10581F7DF91CF911F910F9156
:100D8000FF900895CF93DF93D82F97B3906B97BBC5
:100D90009DB191659DB9E8E5F2E080E28E0F119278
:100DA0008E13FDCFC0E0CD17D9F040E06FE08C2F5F
:100DB0000E946B0647E06BE08C2F0E946B0640E0C0
:100DC00069E08C2F0E946B0644E06AE08C2F0E9441
:100DD0006B0641E06CE08C2F0E946B06CF5FE3CF87
:100DE000DF91CF910895462F6AE00C946B06CF9364
:100DF000DF93833060F5683050F5483040F5E0E827
:100E0000F0E0DF0102C0B595A7954A95E2F7AD0184
:100E1000E82FEE0FEE0FEE0FF0E0A62FB0E0EF019F
:100E2000CA0FDB1FC85ADD4F222319F09881492BC6
:100E300003C04095988149234883E85AFD4FEA0F43
:100E4000FB1F6F5F4081DF91CF910C946B06DF91A8
:100E5000CF910895833078F4683068F4E82FEE0F6E
:100E6000EE0FEE0FF0E0E85AFD4FE60FF11D408364
:100E70006F5F0C946B0608950E941F0380915702C8
:100E8000811105C00E9457030E94A903F7CF109259
:100E90005702F4CFDB018F939F930E94A107BF916C
:100EA000AF91A29F800D911DA39F900DB29F900DB9
:100EB00011240895AA1BBB1B51E107C0AA1FBB1F29
:100EC000A617B70710F0A61BB70B881F991F5A95D6
:100ED000A9F780959095BC01CD01089597FB072E49
:100EE00016F4009407D077FD09D00E945A0707FC3A
:100EF00005D03EF4909581959F4F0895709561952A
:100F00007F4F0895052E97FB1EF400940E949907C9
:100F100057FD07D00E94AC0707FC03D04EF40C9499
:100F2000990750954095309521953F4F4F4F5F4F12
:100F3000089590958095709561957F4F8F4F9F4F45
:100F400008950E94CE07A59F900DB49F900DA49F79
:100F5000800D911D11240895A1E21A2EAA1BBB1B1E
:100F6000FD010DC0AA1FBB1FEE1FFF1FA217B30775
:100F7000E407F50720F0A21BB30BE40BF50B661F8B
:100F8000771F881F991F1A9469F76095709580954F
:100F900090959B01AC01BD01CF010895A29FB001C6
:100FA000B39FC001A39F700D811D1124911DB29F9D
:100FB000700D811D1124911D08950E94E40768940D
:100FC000B1110C94730808950E94580888F09F5737
:100FD00098F0B92F9927B751B0F0E1F0660F771F5D
:100FE000881F991F1AF0BA95C9F714C0B13091F053
:100FF0000E947208B1E008950C947208672F782F50
:101000008827B85F39F0B93FCCF386957795679517
:10101000B395D9F73EF490958095709561957F4F83
:101020008F4F9F4F0895E89409C097FB3EF4909529
:101030008095709561957F4F8F4F9F4F9923A9F0B1
:10104000F92F96E9BB279395F69587957795679540
:10105000B795F111F8CFFAF4BB0F11F460FF1BC084
:101060006F5F7F4F8F4F9F4F16C0882311F096E917
:1010700011C0772321F09EE8872F762F05C06623C5
:1010800071F096E8862F70E060E02AF09A95660F7E
:10109000771F881FDAF7880F9695879597F9089537
:1010A00057FD9058440F551F59F05F3F71F0479519
:1010B000880F97FB991F61F09F3F79F087950895FE
:1010C000121613061406551FF2CF4695F1DF08C01D
:1010D000161617061806991FF1CF8695710561053A
:1010E00008940895E894BB2766277727CB0197F9E2
:1010F00008950E948C080C94FD080E94EF0838F0B7
:101100000E94F60820F0952311F00C94E6080C9448
:10111000EC0811240C9473080E94500870F3959FFA
:10112000C1F3950F50E0551F629FF001729FBB27DE
:10113000F00DB11D639FAA27F00DB11DAA1F649F7A
:101140006627B00DA11D661F829F2227B00DA11D2D
:10115000621F739FB00DA11D621F839FA00D611DB3
:10116000221F749F3327A00D611D231F849F600DD4
:10117000211D822F762F6A2F11249F5750409AF0FD
:10118000F1F088234AF0EE0FFF1FBB1F661F771F89
:10119000881F91505040A9F79E3F510580F00C9454
:1011A000E6080C9473085F3FE4F3983ED4F3869509
:1011B00077956795B795F795E7959F5FC1F7FE2BF4
:1011C000880F911D9695879597F9089597F99F67D0
:1011D00080E870E060E008959FEF80EC08950024BF
:1011E0000A941616170618060906089500240A948C
:1011F00012161306140605060895092E0394000C12
:1012000011F4882352F0BB0F40F4BF2B11F460FFA0
:1012100004C06F5F7F4F8F4F9F4F0895CF93DF9331
:101220008230910510F482E090E0E0917A02F09132
:101230007B0220E030E0C0E0D0E0309711F1408147
:10124000518148175907C0F04817590761F4828146
:101250009381209719F09B838A832BC090937B0204
:1012600080937A0226C02115310519F042175307E1
:1012700018F49A01BE01DF01EF010280F381E02D35
:10128000DCCF2115310509F1281B390B243031053C
:1012900090F412968D919C9113976115710521F030
:1012A000FB019383828304C090937B0280937A0234
:1012B000FD01329644C0FD01E20FF31F819391932B
:1012C000225031092D933C933AC0209178023091FD
:1012D0007902232B41F420910E0230910F023093BA
:1012E00079022093780220910C0230910D02211591
:1012F000310541F42DB73EB74091100250911102D3
:10130000241B350BE0917802F0917902E217F30784
:10131000A0F42E1B3F0B2817390778F0AC014E5F65
:101320005F4F2417350748F04E0F5F1F5093790227
:10133000409378028193919302C0E0E0F0E0CF0106
:10134000DF91CF9108950F931F93CF93DF93009771
:1013500009F48CC0FC0132971382128200917A0248
:1013600010917B020115110581F420813181820FDA
:10137000931F20917802309179022817390779F567
:10138000F0937902E093780271C0D80140E050E018
:10139000AE17BF0750F412962D913C911397AD01F3
:1013A0002115310509F1D901F3CF9D01DA0133830C
:1013B000228360817181860F971F8217930769F4DA
:1013C000EC0128813981260F371F2E5F3F4F318373
:1013D00020838A819B8193838283452B29F4F09318
:1013E0007B02E0937A0242C01396FC93EE9312972D
:1013F000ED01499159919E01240F351FE217F30722
:1014000071F480819181840F951F029611969C93AF
:101410008E938281938113969C938E931297E0E032
:10142000F0E0D80112968D919C911397009719F0D6
:10143000F8018C01F6CF8D919C9198012E5F3F4F62
:10144000820F931F20917802309179022817390773
:1014500069F4309729F410927B0210927A0202C04C
:10146000138212821093790200937802DF91CF9158
:101470001F910F9108958F929F92AF92BF92CF923A
:10148000DF92EF92FF92CF93DF93EC016881798135
:101490008A819B81611571058105910521F464E2C2
:1014A00079ED8BE597E02DE133EF41E050E00E94CC
:1014B000820749015A019B01AC01A7EAB1E40E94ED
:1014C000A1076B017C01ACEEB4EFA50194010E9471
:1014D0003B0DDC01CB018C0D9D1DAE1DBF1DB7FF6B
:1014E00003C00197A109B04888839983AA83BB836D
:1014F0009F77DF91CF91FF90EF90DF90CF90BF90DB
:10150000AF909F908F9008950E943B0A089582E1CA
:1015100092E00E943B0A0895A0E0B0E0809312029E
:1015200090931302A0931402B09315020895AEE0B5
:10153000B0E0EDE9FAE00C944E0D0D891E8986E0CD
:101540008C831A8309838FEF9FE79E838D83AE017F
:10155000475E5F4F6F89788DCE0101960E94BA0A6F
:101560002F813885F801E20FF31F10822E96E4E0F8
:101570000C946A0DACE0B0E0E0ECFAE00C94400DA5
:101580007C016B018A01FC0117821682838181FF35
:10159000BDC1CE0101964C01F7019381F60193FD87
:1015A000859193FF81916F01882309F4ABC1853246
:1015B00039F493FD859193FF81916F01853229F470
:1015C000B70190E00E94A20CE7CF512C312C20E013
:1015D0002032A0F48B3269F030F4803259F083323B
:1015E00069F420612CC08D3239F0803339F42160E8
:1015F00026C02260246023C0286021C027FD27C0A8
:1016000030ED380F3A3078F426FF06C0FAE05F9EDE
:10161000300D1124532E13C08AE0389E300D112452
:10162000332E20620CC08E3221F426FD6BC1206463
:1016300006C08C3611F4206802C0883641F4F601E9
:1016400093FD859193FF81916F018111C1CF982FF7
:101650009F7D9554933028F40C5F1F4FFFE3F9836F
:101660000DC0833631F0833771F0833509F05BC0EC
:1016700022C0F801808189830E5F1F4F4424439468
:10168000512C540115C03801F2E06F0E711CF801A5
:10169000A080B18026FF03C0652D70E002C06FEF0F
:1016A0007FEFC5012C870E94970C2C0183012C85AC
:1016B0002F77222E17C03801F2E06F0E711CF8014F
:1016C000A080B18026FF03C0652D70E002C06FEFDF
:1016D0007FEFC5012C870E948C0C2C012C85206883
:1016E000222E830123FC1BC0832D90E0481659064F
:1016F000B0F4B70180E290E00E94A20C3A94F4CFDB
:10170000F50127FC859127FE81915F01B70190E0EB
:101710000E94A20C31103A94F1E04F1A5108411482
:10172000510471F7E5C0843611F0893639F5F801B6
:1017300027FF07C060817181828193810C5F1F4FF9
:1017400008C060817181072E000C880B990B0E5F19
:101750001F4F2F76722E97FF09C090958095709538
:1017600061957F4F8F4F9F4F2068722E2AE030E0A7
:10177000A4010E94DA0CA82EA81844C0853729F4C9
:101780002F7EB22E2AE030E025C0F22FF97FBF2E47
:101790008F36C1F018F4883579F0B4C0803719F06D
:1017A000883721F0AFC02F2F2061B22EB4FE0DC0BC
:1017B0008B2D8460B82E09C024FF0AC09F2F96602D
:1017C000B92E06C028E030E005C020E130E002C0BC
:1017D00020E132E0F801B7FE07C0608171818281AB
:1017E00093810C5F1F4F06C06081718180E090E0A3
:1017F0000E5F1F4FA4010E94DA0CA82EA818FB2D23
:10180000FF777F2E76FE0BC0372D3E7FA51450F458
:1018100074FE0AC072FC08C0372D3E7E05C0BA2C8B
:10182000372D03C0BA2C01C0B52C34FF0DC0FE010A
:10183000EA0DF11D8081803311F4397E09C032FF39
:1018400006C0B394B39404C0832F867809F0B39490
:1018500033FD13C030FF06C05A2CB31418F4530CD8
:101860005B18B32CB31468F4B70180E290E03C87B6
:101870000E94A20CB3943C85F5CFB31410F43B182E
:1018800001C0312C34FF12C0B70180E390E03C87E7
:101890000E94A20C3C8532FF17C031FD03C088E7CF
:1018A00090E002C088E590E0B7010CC0832F8678F5
:1018B00059F031FF02C08BE201C080E237FD8DE2BA
:1018C000B70190E00E94A20CA51438F4B70180E3A0
:1018D00090E00E94A20C5A94F7CFAA94F401EA0D6A
:1018E000F11D8081B70190E00E94A20CA110F5CFFC
:1018F000332009F451CEB70180E290E00E94A20C9F
:101900003A94F6CFF7018681978102C08FEF9FEF5F
:101910002C96E2E10C945C0DFC0105906150704046
:101920000110D8F7809590958E0F9F1F0895FC01A8
:101930006150704001900110D8F7809590958E0FFE
:101940009F1F08950F931F93CF93DF93FB01238174
:1019500021FD03C08FEF9FEF28C022FF16C04681F4
:101960005781248135814217530744F4A081B18106
:101970009D012F5F3F4F318320838C9326813781D8
:101980002F5F3F4F3783268310C0EB01092F182F9D
:101990000084F185E02D0995892BE1F68E819F81E8
:1019A00001969F838E83812F902FDF91CF911F917E
:1019B0000F910895FA01AA27283051F1203181F1C1
:1019C000E8946F936E7F6E5F7F4F8F4F9F4FAF4F47
:1019D000B1E03ED0B4E03CD0670F781F891F9A1F5A
:1019E000A11D680F791F8A1F911DA11D6A0F711D0E
:1019F000811D911DA11D20D009F468943F912AE01A
:101A0000269F11243019305D3193DEF6CF01089501
:101A1000462F4770405D4193B3E00FD0C9F7F6CF32
:101A2000462F4F70405D4A3318F0495D31FD4052FA
:101A3000419302D0A9F7EACFB4E0A6959795879590
:101A400077956795BA95C9F700976105710508956F
:101A50009B01AC010A2E069457954795379527951B
:101A6000BA95C9F7620F731F841F951FA01D0895B3
:101A7000B7FF0C94A1070E94A107821B930B089546
:101A80002F923F924F925F926F927F928F929F928E
:101A9000AF92BF92CF92DF92EF92FF920F931F937C
:101AA000CF93DF93CDB7DEB7CA1BDB0B0FB6F8942D
:101AB000DEBF0FBECDBF09942A88398848885F846D
:101AC0006E847D848C849B84AA84B984C884DF80DE
:101AD000EE80FD800C811B81AA81B981CE0FD11DC2
:101AE0000FB6F894DEBF0FBECDBFED010895F89498
:021AF000FFCF26
:101AF20011000102010102010000000000000000CB
:101B020000000000000000000000000000000000D3
:101B120000000000000000000000000000000000C3
:101B220000000000000000000000000000000000B3
:101B320000000000000000000000000000000000A3
:101B42000000000000000000000000000000000093
:101B5200000000000000000001010201000000007E
:101B62000000000000000000000000000000000073
:101B72000000000000000000000000000000000063
:101B82000000000000000000000000000000000053
:101B92000000000000000000000000000000000043
:101BA2000000000000000000000000000000000033
:101BB2000000000000000000000000000C000C000B
:101BC2000C000C000C000C00060003000C000C00C2
:101BD2000C000C000C000C00060003000C000C00B2
:101BE2000C000C000C000C00060003000C000C00A2
:101BF2000C000C000C000C00060006001200120083
:101C0200120006000600060006000600060012008A
:101C1200120012001200120012000A000A000A004A
:101C22000A000A000A0003000300030006010B0277
:101C3200DC00B801E900D2010000000006010B023D
:101C4200DC00B801E900D20100000000AF005D0134
:101C5200930026019C00370100000000AF005D01E7
:101C6200930026019C003701000000003701150196
:101C72002601150137013701D000C4001501060104
:101C820072015D01A500D201B8019F013701F70081
:101C9200E900DC00D00000000000000000007C022F
:101CA20020000100000057454C434F4D450047417D
:101CB2004D454F5645522100594F55522053434FDF
:101CC200524520495320002573256400484947485E
:0C1CD2002053434F52452049532000008E
:00000001FF
