:100000000C942A000C9447000C9447000C94470071
:100010000C9447000C9447000C9447000C94470044
:100020000C9447000C9447000C9447000C94470034
:100030000C9447000C9447000C9447000C94470024
:100040000C9447000C9447000C9447000C94470014
:100050000C94470011241FBECFE5D8E0DEBFCDBF12
:1000600010E0A0E6B0E0ECE6F8E002C005900D92EA
:10007000A43AB107D9F720E0A4EAB0E001C01D928C
:10008000AF3CB207E1F70E943F030C9434040C9498
:1000900000001ABA86E886B982E00E94A20280E0D7
:1000A0000E94D70281E00C94D70287B9369A349B1C
:1000B000FECF84B195B10895CF93DF9380E00E9485
:1000C0005500EC0181E00E9455009C01CF3FD10515
:1000D00009F018F483E08093AB00D350CF3FD105F3
:1000E00009F018F481E08093AB002F3F310509F04F
:1000F00018F484E08093AB0033502F3F310509F0B2
:1001000018F482E08093AB008091AB00DF91CF9137
:100110000895CF93DF9390E00E94C6030E94C1032D
:10012000C9EAD0E06FE070E00E944D0388830E942E
:10013000C10367E070E00E944D038983CE01DF9127
:10014000CF9108956AE070E00E944D0380E090E056
:100150008617970744F4EFE3FCE93197F1F700C005
:1001600000000196F5CF0895CF93DF93C82F20911B
:10017000630030E0215031095091A70040E0842F06
:1001800090E08217930794F4DC01AA0FBB1FAC59CF
:10019000BF4F880F991FFC01EC57FF4F80818C9354
:1001A000818111968C934F5F52E0E9CF5093A70065
:1001B000C23009F44AC0C330A1F0C43049F1C130A3
:1001C00009F044C0220F331FD901AC59BF4FF901C8
:1001D000EE57FF4F80818F708C93818190E0019664
:1001E00012C0220F331FD901AC59BF4FF901EE578E
:1001F000FF4F80818F708C93818190E0009711F484
:1002000087E003C001978770992711968C931EC0D1
:10021000220F331FF901EE57FF4F808190E0F90163
:10022000EC59FF4F009711F48FE003C001978F70D6
:1002300099278083F901EC59FF4FD901AE57BF4F81
:1002400011968C918770818301C0C0E01092A80044
:10025000D1E08091A800909163008917E0F490E0CC
:10026000880F991FFC01EE57FF4F6081683008F03E
:100270002BC11092A600FC01EE57FF4F677020E0E3
:1002800041818091A6000E94FA028091A8008F5FB0
:100290008093A800DECF1092A800D1E09091A80032
:1002A000809163009817E8F4892F90E0880F991FD8
:1002B000FC01EC59FF4F6081683008F008C11092D2
:1002C000A600FC01EC59FF4F677021E0418180914D
:1002D000A6000E94FA028091A8008F5F8093A80078
:1002E000DDCF2091A70090E0981788F4E92FF0E087
:1002F000EE0FFF1FDF01AE57BF4FEC59FF4F2081BC
:100300002C93218111962C939F5F22E0EDCF909347
:10031000A8002093A700909162009923B1F00E9459
:100320008900FC019093A5008093A40010926200C4
:100330006081683028F0677021E0418181E003C06E
:1003400021E0418180E00E94FA02E0916300F0E048
:10035000EE0FFF1FEE59FF4F6081A091A400B091F6
:10036000A5008C9168136EC0418111968C91481341
:1003700069C081E080936200683018F0677020E007
:1003800002C020E080E00E94FA02E0916300EF5F8B
:10039000E0936300C23009F198F4C13009F049C01C
:1003A000F0E03197C091A400D091A5009881EE0FA4
:1003B000FF1FDF01AC59BF4F9C9389818F5F25C020
:1003C000C330A1F0C430A9F5F0E03197C091A4008A
:1003D000D091A500888181501FC0F0E03197C09175
:1003E000A400D091A50088818F5F16C0F0E03197FE
:1003F000C091A400D091A5009881EE0FFF1FDF01EE
:10040000AC59BF4F9C938981815011968C93EE57C4
:10041000FF4F908381830DC0EE0FFF1FDF01AC59AA
:10042000BF4F8C93998111969C93EE57FF4F808319
:100430009183809160009091610007979093610093
:10044000809360008091630090E0BC01615071096D
:1004500050916400A091650041E0242F30E0261700
:10046000370744F5220F331FF901EC59FF4F208164
:1004700025131EC021812A131BC04093A800039797
:100480002091AC003091AD002817390720F49093EB
:10049000AD008093AC0082E08093630081E08093A4
:1004A000AE0086E990E0909361008093600004C004
:1004B0004F5FD3CF4093A80080916000909161007E
:1004C000DF91CF910C94A200D093A600D4CED0930C
:1004D000A600F7CE8FB9779BFECF0895EF92FF92DB
:1004E0000F931F93CF93DF9300D000D0CDB7DEB72B
:1004F00019821A821B821C82880F90E0FE01E80F8D
:10050000F91F62839E012F5F3F4F7901F901E80FC8
:10051000F91F4083C4988E010B5F1F4FF801829131
:100520008F010E946A020E151F05C1F7C49A0F9031
:100530000F900F900F90DF91CF911F910F91FF902F
:10054000EF900895CF93DF93D82F97B3906B97BB1D
:100550009DB191659DB9EFEAF0E080E28E0F1192B6
:100560008E13FDCFC0E0CD17D9F040E06FE08C2FA7
:100570000E946E0247E06BE08C2F0E946E024FE0FB
:1005800069E08C2F0E946E0248E06AE08C2F0E9486
:100590006E0241E06CE08C2F0E946E02CF5FE3CFD1
:1005A000DF91CF910895462F6AE00C946E02FF927E
:1005B0000F931F93CF93DF93F82E082F000F000F98
:1005C000000FC0E0D0E010E0FE01E00FF11FE155A8
:1005D000FF4F10826C2F6F5F40E08F2D0E946E02E4
:1005E0002196C830D10581F7DF91CF911F910F91EE
:1005F000FF900895CF93DF93833060F5683050F516
:10060000483040F5E0E8F0E0DF0102C0B595A7957D
:100610004A95E2F7AD01E82FEE0FEE0FEE0FF0E096
:10062000A62FB0E0EF01CA0FDB1FC155DF4F222319
:1006300019F09881492B03C040959881492348833C
:10064000E155FF4FEA0FFB1F6F5F4081DF91CF91B4
:100650000C946E02DF91CF910895833078F4683066
:1006600068F4E82FEE0FEE0FEE0FF0E0E155FF4FCC
:10067000E60FF11D40836F5F0C946E0208950E9497
:1006800049008091AE00811105C00E945C000E946B
:10069000B400F7CF1092AE00F4CF97FB072E16F4FC
:1006A000009407D077FD09D00E94610307FC05D0B4
:1006B0003EF4909581959F4F0895709561957F4F79
:1006C0000895AA1BBB1B51E107C0AA1FBB1FA61799
:1006D000B70710F0A61BB70B881F991F5A95A9F7EB
:1006E00080959095BC01CD0108958F929F92AF9215
:1006F000BF92CF92DF92EF92FF92CF93DF93EC0104
:10070000688179818A819B816115710581059105D7
:1007100021F464E279ED8BE597E02DE133EF41E0E0
:1007200050E00E94D10349015A019B01AC01A7EAA4
:10073000B1E40E94F0036B017C01ACEEB4EFA501C3
:1007400094010E94FE03DC01CB018C0D9D1DAE1DAA
:10075000BF1DB7FF03C00197A109B04888839983E3
:10076000AA83BB839F77DF91CF91FF90EF90DF90BB
:10077000CF90BF90AF909F908F9008950E94750387
:10078000089580EA90E00E9475030895A0E0B0E02B
:100790008093A0009093A100A093A200B093A30027
:1007A0000895052E97FB1EF400940E94E80357FD60
:1007B00007D00E94030407FC03D04EF40C94E80316
:1007C00050954095309521953F4F4F4F5F4F08957D
:1007D00090958095709561957F4F8F4F9F4F0895AD
:1007E0000E942504A59F900DB49F900DA49F800D9D
:1007F000911D11240895B7FF0C94F0030E94F0039B
:10080000821B930B0895A1E21A2EAA1BBB1BFD01AC
:100810000DC0AA1FBB1FEE1FFF1FA217B307E407DF
:10082000F50720F0A21BB30BE40BF50B661F771F37
:10083000881F991F1A9469F7609570958095909517
:100840009B01AC01BD01CF010895A29FB001B39FF0
:10085000C001A39F700D811D1124911DB29F700DC9
:0C086000811D1124911D0895F894FFCF14
:10086C0096000102010102010301040105010601C8
:10087C000701080109010A010B010C010D010E0110
:10088C000F01010102010301040105010601070129
:10089C00080109010A010B010C010D010E010F01E8
:0408AC000100000047
:00000001FF
